:100000000C944F030C9402180C94DB170C94770398
:100010000C9477030C9477030C9477030C94770378
:100020000C9477030C9477030C9477030C94770368
:100030000C9477030C9477030C9477030C94770358
:100040000C9491170C9477030C944F180C94291866
:100050000C9477030C9477030C9477030C94770338
:100060000C9481180C947703084AD73B3BCE016E61
:1000700084BCBFFDC12F3D6C74319ABD56833DDAFF
:100080003D00C77F11BED9E4BB4C3E916BAAAABE0E
:10009000000000803F001F1C1F1E1F1E1F1F1E1F71
:1000A0001E00000000003E5B4F5B3E3E6B4F6B3E10
:1000B0001C3E7C3E1C183C7E3C181C577D571C1C6B
:1000C0005E7F5E1C00183C1800FFE7C3E7FF0018C6
:1000D000241800FFE7DBE7FF30483A060E262979AF
:1000E0002926407F050507407F05253F5A3CE73C10
:1000F0005A7F3E1C1C08081C1C3E7F14227F2214C1
:100100005F5F005F5F06097F017F006689956A6017
:100110006060606094A2FFA29408047E040810202E
:100120007E201008082A1C08081C2A08081E101027
:1001300010100C1E0C1E0C30383E3830060E3E0ED1
:1001400006000000000000005F000000070007003C
:10015000147F147F14242A7F2A1223130864623622
:10016000495620500008070300001C2241000041AE
:10017000221C002A1C7F1C2A08083E0808008070E8
:10018000300008080808080000606000201008041B
:10019000023E5149453E00427F400072494949466E
:1001A0002141494D331814127F1027454545393CEC
:1001B0004A494931412111090736494949364649D9
:1001C00049291E00001400000040340000000814FB
:1001D0002241141414141400412214080201590974
:1001E000063E415D594E7C1211127C7F49494936C9
:1001F0003E414141227F4141413E7F494949417F42
:10020000090909013E414151737F0808087F0041F7
:100210007F41002040413F017F081422417F404040
:1002200040407F021C027F7F0408107F3E41414115
:100230003E7F090909063E4151215E7F0919294681
:10024000264949493203017F01033F4040403F1F97
:100250002040201F3F4038403F63140814630304CC
:100260007804036159494D43007F4141410204082C
:100270001020004141417F040201020440404040FF
:1002800040000307080020545478407F2844443835
:100290003844444428384444287F3854545418007F
:1002A000087E090218A4A49C787F080404780044FE
:1002B0007D40002040403D007F1028440000417FE9
:1002C00040007C047804787C080404783844444472
:1002D00038FC1824241818242418FC7C080404086A
:1002E000485454542404043F44243C4040207C1C83
:1002F0002040201C3C4030403C44281028444C9076
:1003000090907C4464544C440008364100000077CF
:100310000000004136080002010204023C262326A8
:100320003C1EA1A161123A4040207A3854545559DC
:100330002155557941225454784221555478402012
:10034000545579400C1E527212395555555939542D
:1003500054545939555454580000457C41000245C5
:100360007D420001457C407D1211127DF028252838
:10037000F07C545545002054547C547C0A097F4934
:1003800032494949323A4444443A324A4848303A78
:100390004141217A3A42402078009DA0A07D3D4213
:1003A00042423D3D4040403D3C24FF2424487E499C
:1003B00043662B2FFC2F2BFF0929F620C0887E09CE
:1003C0000320545479410000447D413048484A326A
:1003D000384040227A007A0A0A727D0D19317D2652
:1003E00029292F28262929292630484D4020380838
:1003F00008080808080808382F10C8ACBA2F1028B9
:1004000034FA00007B000008142A142222142A1453
:10041000085500550055AA55AA55AAFF55FF55FF86
:10042000000000FF00101010FF00141414FF001053
:1004300010FF00FF1010F010F0141414FC0014143E
:10044000F700FF0000FF00FF1414F404FC1414175D
:10045000101F10101F101F1414141F00101010F084
:10046000000000001F101010101F10101010F010CE
:10047000000000FF101010101010101010FF1000DE
:100480000000FF140000FF00FF00001F1017000015
:10049000FC04F414141710171414F404F40000FFEF
:1004A00000F714141414141414F700F71414141788
:1004B0001410101F101F141414F4141010F010F066
:1004C00000001F101F0000001F14000000FC14009B
:1004D00000F010F01010FF10FF141414FF1410108F
:1004E000101F00000000F010FFFFFFFFFFF0F0F012
:1004F000F0F0FFFFFF0000000000FFFF0F0F0F0FE5
:100500000F3844443844FC4A4A4A347E0202060604
:10051000027E027E0263554941633844443C0440F4
:100520007E201E2006027E020299A5E7A5991C2ABC
:10053000492A1C4C7201724C304A4D4D303048787B
:100540004830BC625A463D3E494949007E0101019E
:100550007E2A2A2A2A2A44445F444440514A44407D
:1005600040444A51400000FF0103E080FF000008C2
:10057000086B6B083612362436060F090F0600008A
:1005800018180000001010003040FF0101001F018A
:10059000011E00191D1712003C3C3C3C00000000ED
:1005A000000001020304050608090A0B0D0E1012D3
:1005B000131517191B1D202225272A2D3033373AF2
:1005C0003E4145494D52565B5F64696E74797F8543
:1005D0008B91979DA4ABB2B9C0C7CFD6DEE6EEF73C
:1005E000FF000102030507090B0E1114181D222834
:1005F0002E363D464F59646F7C8997A6B6C7D9EB16
:10060000FF31393A34393A3233004F63742032388B
:1006100020323032350031393A34393A3233004FF2
:10062000637420323820323032350031393A34396F
:100630003A3233004F637420323820323032350082
:1006400000000000240027002A0000000000230012
:100650002600290000000008000201000003040732
:10066000000000000000000001020408102040808B
:1006700001020408102001020408102000000000FC
:10068000250028002B0004040404040404040202CE
:1006900002020202030303030303A0191A26112412
:1006A0001FBECFEFD8E0DEBFCDBF26E0A2EFB3E0A4
:1006B00001C01D92A931B207E1F713E0A0E0B1E05B
:1006C000E8E3F6E502C005900D92A23FB107D9F725
:1006D00013E0CEE4D3E004C02197FE010E949529E7
:1006E000CD34D107C9F70E94171B0C940F2B0C9423
:1006F0000000CF93DF9321E0280F6091FA052617C1
:1007000039F1C091FB05D091FC056150E1F0822FD9
:1007100090E0982F8827019770E00E944B29FE01F6
:100720004091F6055091F705CF018C1B9D0B841766
:10073000950760F43081369FC001379F900D1124DA
:1007400090833196EDCF70E060E0E9CF2093FA0519
:10075000DF91CF910895833081F028F4813099F0B2
:100760008230A9F008958730A9F08830C9F084302C
:10077000B1F4809180008F7D03C0809180008F77DD
:1007800080938000089584B58F7784BD089584B5E3
:100790008F7DFBCF8091B0008F778093B00008955C
:1007A0008091B0008F7DF9CFCF93DF93282F30E079
:1007B000F901EC5AF94F8491F901E859F94FD491B4
:1007C000F901EA57F94FC491CC23A1F081110E949D
:1007D000AB03EC2FF0E0EE0FFF1FE65BF94FA591A6
:1007E000B491EC91ED2381E090E009F480E0DF9199
:1007F000CF91089580E090E0FACF1F93CF93DF93DD
:10080000282F30E0F901EC5AF94F8491F901E859A9
:10081000F94FD491F901EA57F94FC491CC23A9F0CB
:10082000162F81110E94AB03EC2FF0E0EE0FFF1F9B
:10083000E458F94FA591B4918FB7F894EC91111148
:1008400008C0D095DE23DC938FBFDF91CF911F913D
:100850000895DE2BF8CFCF93DF9390E0FC01E859A9
:10086000F94F24918A57994FFC0184918823D1F044
:1008700090E0880F991FFC01E05CF94FA591B491BD
:10088000FC01E458F94FC591D49161110EC09FB796
:10089000F8948C91E22FE0958E238C932881E223AB
:1008A000E8839FBFDF91CF9108958FB7F894EC91C3
:1008B000E22BEC938FBFF6CF3FB7F894809193046F
:1008C00090919404A0919504B091960426B5A89BAC
:1008D00005C02F3F19F00196A11DB11D3FBFBA2FD2
:1008E000A92F982F8827BC01CD01620F711D811D92
:1008F000911D42E0660F771F881F991F4A95D1F717
:1009000008950F931F93CF93DF93CDB7DEB7299749
:100910000FB6F894DEBF0FBECDBF8091FB0590915E
:10092000FC05892B09F47CC00E945C04009101063F
:10093000109102062091030630910406601771079A
:100940008207930740F46093010670930206809338
:10095000030690930406009101061091020620916F
:10096000030630910406601B710B820B930B6C32F3
:10097000714081059105C0F2F8948091F60590913F
:10098000F7059A838983E091FB05F091FC05DF016F
:100990001196808189879091F205E0910506F0918A
:1009A000060680910706992309F445C09081982B8B
:1009B00098879081809589238F838F818C8388E0AD
:1009C0008B8358856F8149853B812C8189819A81F0
:1009D000508347FD252F3A952083262F39F0441F59
:1009E00000C000006083000000C0F2CF38E04D91ED
:1009F00060830000019761F7F0930606E093050617
:100A000049873B832C839A83898378940E945C0472
:100A10006093010670930206809303069093040688
:100A200029960FB6F894DEBF0FBECDBFDF91CF91F0
:100A30001F910F9108959081982B988790818095B0
:100A400089238F838F818E8388E08D8358856F8182
:100A500049853D812E8189819A81508347FD252FCB
:100A600000C000C0208300C000C000C000C000C0A3
:100A700060830000262F3A9541F0441F000000C01B
:100A800000C000C000C000C0E8CF38E04D9100C0F9
:100A9000608300C0019709F7F0930606E09305060E
:100AA00049873D832E83AFCF8F929F92AF92BF92A3
:100AB000CF92DF92EF92FF926B017C010E945C0467
:100AC0004B015C01C114D104E104F104B9F00E94AE
:100AD0005C04681979098A099B09683E734081059D
:100AE000910580F321E0C21AD108E108F10888EEEF
:100AF000880E83E0981EA11CB11CE4CFFF90EF90FC
:100B0000DF90CF90BF90AF909F908F9008952FB7B8
:100B1000F89460918F047091900480919104909169
:100B200092042FBF08950895089508950895AF92EF
:100B3000BF92CF92DF92EF92FF920F931F93CF93CA
:100B4000DF936C017B018B01040F151FEB015E012C
:100B5000AE18BF08C017D10759F06991D601ED91C1
:100B6000FC910190F081E02DC6010995892B79F760
:100B7000C501DF91CF911F910F91FF90EF90DF9012
:100B8000CF90BF90AF900895FC01538D448D252FD9
:100B900030E0842F90E0821B930B541710F0CF9617
:100BA000089501970895FC01918D828D981761F049
:100BB000A28DAE0FBF2FB11D5D968C91928D9F5F60
:100BC0009F73928F90E008958FEF9FEF0895FC013F
:100BD000918D828D981731F0828DE80FF11D858DF2
:100BE00090E008958FEF9FEF0895FC01918D228D85
:100BF000892F90E0805C9F4F821B91098F7399270A
:100C000008958BE095E00E94F50521E0892B09F419
:100C100020E0822F089580E090E0892B29F00E9447
:100C2000010681110C9400000895FC01A48DA80F09
:100C3000B92FB11DA35ABF4F2C91848D90E001961E
:100C40008F739927848FA689B7892C93A089B1893E
:100C50008C91837080648C93938D848D981306C0DF
:100C60000288F389E02D80818F7D80830895EF9243
:100C7000FF920F931F93CF93DF93EC0181E0888F56
:100C80009B8D8C8D98131AC0E889F989808185FF26
:100C900015C09FB7F894EE89FF896083E889F989C8
:100CA00080818370806480839FBF81E090E0DF91CA
:100CB000CF911F910F91FF90EF900895F62E0B8D1D
:100CC00010E00F5F1F4F0F731127E02E8C8D8E11D8
:100CD0000CC00FB607FCFACFE889F989808185FF3F
:100CE000F5CFCE010E941506F1CFEB8DEC0FFD2F55
:100CF000F11DE35AFF4FF0829FB7F8940B8FEA89FA
:100D0000FB8980818062CFCF682F8BE095E00C94C7
:100D10003706CF93DF93EC01888D8823B9F0AA8939
:100D2000BB89E889F9898C9185FD03C0808186FDA6
:100D30000DC00FB607FCF7CF8C9185FFF2CF8081F5
:100D400085FFEDCFCE010E941506E9CFDF91CF914F
:100D500008958F929F92AF92BF92CF92DF92EF92BF
:100D6000FF921F93CF93DF93FC014A01AA24BB2477
:100D7000C82DC32ED42EE52EFF241C2DD22F808506
:100D8000882361F0889E40011124C92D8C9D60014B
:100D900011241D2D829FD0011124DB2FA685E18413
:100DA000F2849385A91322C0CB01880F991F680F85
:100DB000791F6E0D7F1DA385A60FB72FB11DCC9394
:100DC000A485A60FB72FB11D1C938585680F711DD3
:100DD000FB01D083DF91CF911F91FF90EF90DF90C7
:100DE000CF90BF90AF909F908F900895660F771F20
:100DF000660F771F6E0D7F1D252F3327442755273C
:100E0000882349F090E0829F7001839FF00C929FAD
:100E1000F00C11242F2DA60FB72FB11D2C93CBCF83
:100E2000FC01EF2FFF27E695E695E695EF51FA4F87
:100E30002491FC0135E0F695E7953A95E1F7EF73DB
:100E4000FF27EF55FA4F64918F719927FC01EF51FD
:100E5000FA4FE49170E090E080E0982F872F762F92
:100E60006627822B6E2B08958F929F92AF92BF922E
:100E7000CF92DF92EF92FF920F931F93CF93DF9366
:100E80008C01CB01F80124AD2223F1F080AC91ACB0
:100E9000A2ACB3ACF801E58CF68CD0E0C0E0680100
:100EA000FBE1CF0ED11CCE15DF0599F0F801858D41
:100EB000968DC817D90730F4A5019401BE01C6016B
:100EC0000E94A9062196EFCF0E9410074B015C01FA
:100ED000E1CFDF91CF911F910F91FF90EF90DF90C5
:100EE000CF90BF90AF909F908F9008955F926F9238
:100EF0007F928F929F92AF92BF92CF92DF92EF92AA
:100F0000FF920F931F93CF93DF938C01EB017A0134
:100F1000690177FD31C157FD2FC1DC0118968D9114
:100F20009C911997681779070CF026C11A968D9134
:100F30009C911B97481759070CF01EC156968C912F
:100F40005697823009F442C0833009F44FC0813093
:100F500041F414968D919C910197841B950B7B0114
:100F6000EC01D801D696ED91FC91D797309709F412
:100F700046C0B701CE010995EC01B12CA12CF801B6
:100F800084AD882309F4F2C020AD31AD42AD53AD3C
:100F9000B5016C0F7D1FD8015D968D919C916817EE
:100FA000790708F0E9C0C8014B96DF91CF911F91F6
:100FB0000F91FF90EF90DF90CF90BF90AF909F90F8
:100FC0008F907F906F905F900C94A906F8018481B8
:100FD000958101979C01261B370BE901868197813A
:100FE0000197DC01A41BB50B7D01BBCFF801868105
:100FF00097810197861B970BEA017C01B2CFF8011C
:1010000081A8F82DF3707F2ED4969C90D497B12CA4
:10101000A12C992009F46BC0D2966C90A62CB12C0F
:10102000CE01B5010E945F299B01F80153A8E52D6F
:10103000F0E0C701BF010E945F29CB01A29EA00181
:10104000A39E500DB29E500D1124C41BD50BE69FDC
:10105000A001E79F500DF69F500D1124E41AF50AE8
:1010600085FE07C0A92DA150BB0BFD01E21BF30BB0
:101070009F0184FE07C0D801D5968C918150990BB1
:10108000861B970B86FC11C0492D50E0782F692FE5
:10109000C901272F362F87FC0DC0249FB001259F43
:1010A000700D349F700D112416C0F80195A8492DBC
:1010B00050E0F1CF20FFF1CF682D60956370762E60
:1010C0002F5F3F4F249FB001259F700D349F700DFF
:1010D000112480959095680F791F659CC00111249B
:1010E000869F5001879FB00C969FB00C1124B701CA
:1010F000872D827049F0D801D2968C918150990B3E
:10110000FC01EC1BFD0BEF0170FE07C0D801D3966C
:101110006C916150770B6E197F0982FC12C0F80147
:1011200082A990E0362F272FBE01C32FD22F83FC38
:101130000DC0C89F9001C99F300DD89F300D11245C
:1011400011C0D801D3968C9190E0F1CFC0FFF1CFC0
:101150002196C89F9001C99F300DD89F300D112452
:1011600060957095E901C60FD71F09CFC6010E948F
:1011700010079B01AC010CCFDF91CF911F910F9114
:10118000FF90EF90DF90CF90BF90AF909F908F90A7
:101190007F906F905F9008950895FC016370668B57
:1011A0008481958126813781613039F0633029F05F
:1011B0009187808733872287089531872087938797
:1011C000828708952F923F924F925F926F927F9203
:1011D0008F929F92AF92BF92CF92DF92EF92FF9247
:1011E0000F931F93CF93DF93CDB7DEB76A970FB6F8
:1011F000F894DEBF0FBECDBF9A8F898F7A83698343
:101200004A01D22E18870F833701BC2CDC01599676
:101210002D913C915A972115310509F015C1189669
:101220008D919C911997681779070CF0D7C11A9680
:101230008D919C91481759070CF0D0C14C2C512C22
:10124000B6E0CB9E600D711D11247C876B8716164E
:1012500017060CF0C3C1EA2DF0E0FA87E98793E0A6
:10126000EE0FFF1F9A95E1F7F88BEF87CF01840F00
:10127000951F181619060CF0B1C1A98DBA8D589694
:101280008C91811104C0BFEABD1508F4D394A98DD7
:10129000BA8DED91FC9111970284F385E02DCD017B
:1012A0000995B5E0DB9EC0011124E981FA81FC8338
:1012B000EB83312C212C9C012F553F4F388F2F8BE6
:1012C0004A2D50E05E8B4D8BEF89F88DE20DF31DBA
:1012D00044919E828D82D12CC12C69817A81620DCC
:1012E000731D7A8B698B842F90E09C8B8B8BE98D9F
:1012F000FA8DA081B18140FF82C0F1E0BF126FC0C2
:10130000AF126DC01C96ED91FC912F813885A40120
:101310004C0D5D1D69897A89898D9A8D0995EB89B6
:10132000FC89F595E7954E2F5FEFC51AD50A6D81BB
:101330007E818D899E89680F791F7E836D8398E0F9
:10134000C916D10481F6AFEF2A1A3A0AEB81FC8163
:10135000E40DF51DFC83EB83F5E02F16310409F055
:10136000B3CF2F81388526153705B9F0A98DBA8DF1
:10137000ED91FC91B1E0BB1257C0AB1255C0698131
:101380007A816B5F7F4F0088F189E02D830128E02F
:1013900030E0A401898D9A8D0995A98DBA8DED91C2
:1013A000FC9111970688F789E02DCD016A960FB65A
:1013B000F894DEBF0FBECDBFDF91CF911F910F918B
:1013C000FF90EF90DF90CF90BF90AF909F908F9065
:1013D0007F906F905F904F903F902F9009941E9652
:1013E000ED91FC91EF80F88409851A8592014D8179
:1013F0005E816B817C81898D9A8D099590CF2F813B
:1014000038852615370509F48ACF31E0B31207C0B5
:10141000A31205C01C96ED91FC91930178CF1E9606
:10142000ED91FC917301E0CF6B857C8564197509A2
:101430000684F785E02D73010F8518899201A401B8
:10144000898D9A8D0995A9CFF90134969491329797
:1014500045915491D91AB7E0DB9E400D511D1124DE
:10146000F901259134913C8B2B8BFA012590349016
:10147000FA013296749031963491398B3296649099
:101480003196449041E04C1518F04A1508F07FC0A1
:10149000662D062C000C770B7C836B83842D042C2B
:1014A000000C990B9E838D83A98DBA8DED91FC91D3
:1014B00011970284F385E02DCD010995512CD12C93
:1014C000C12CEA2DF0E0FA87E9872B2D30E03C872C
:1014D0002B87A401440D511D47FC5A95588F4F8B03
:1014E00069817A81660D711D67FC7A957E876D87AB
:1014F0007989C71608F051CF2C2D30E04D815E81DF
:10150000420F531FA985BA854A9FC0014B9F900D7A
:101510005A9F900D1124FC01E80DF91DF88BEF87FF
:10152000852D612C4F89588D420F531F5E8B4D8B3B
:10153000671408F050C044244394480E877041F467
:10154000C1010196EB89FC89E20DF31DD4901C01C9
:10155000D7FE19C0A98DBA8DED91FC91662D70E072
:10156000B1E0BB1219C0AB1217C02D853E85620FCA
:10157000731F0484F585E02D2F8138854D895E89A0
:10158000898D9A8D0995DD0C6394842DD1CF1E82AF
:101590001D821C821B8288CF4B815C81640F751F6A
:1015A000AB85BC856A9FC0016B9F900D7A9F900DA3
:1015B000112469817A81680F791F0684F785E02DEF
:1015C000EF80F88409851A859D014F855889898D9A
:1015D0009A8D0995D8CF570CC3948ACF6A960FB6C7
:1015E000F894DEBF0FBECDBFDF91CF911F910F9159
:1015F000FF90EF90DF90CF90BF90AF909F908F9033
:101600007F906F905F904F903F902F9008958F92B2
:101610009F92AF92CF92EF92FF920F931F93CF932F
:10162000DF93EC01262F898D9A8D009709F051C028
:101630006A30D1F41D861C868D8948E0849F900114
:1016400011248E859F85820F931F9F878E8781E04F
:1016500090E0DF91CF911F910F91FF90EF90CF908D
:10166000AF909F908F9008956D3089F3CC88AD88AE
:101670008F898823C1F08C859D8536E0C39E800DBF
:10168000911D1124488559854817590764F44E85E2
:101690005F851D861C8638E0A39EC0011124840F3F
:1016A000951F9F878E87EA88FB88088919894E8550
:1016B0005F856C857D85CE010E94E2082C898C8532
:1016C0009D8546E0249F800D911D11249D878C8768
:1016D000BECF6A3069F41D861C86FC013896E49101
:1016E0002D898E859F85E29F800D911D1124ADCFA0
:1016F0006D3009F4ACCFFC0134963491631708F4D3
:10170000A6CF3296E491E61708F4A1CFFC013296F9
:1017100085909490462F431B342F47E0349F800CD4
:10172000911C1124F401329634913196E4913323C3
:10173000A9F1EE2399F1CC88F4013596E491AD88B6
:101740004F89442301F10E2E000CFF0BE30FF11D16
:10175000CE9EA001CF9E500D11246C857D85460F35
:10176000571F68857985641775076CF44E855F850A
:101770001D861C86FC013896E491AE9E400D511DDD
:1017800011245F874E87EA88FB88088919894E856E
:101790005F856C857D85CE010E94E208F401349658
:1017A000E4912C898C859D85E29F800D911D1124EB
:1017B0008DCF6F927F928F929F92AF92BF92CF9276
:1017C000DF92EF92FF920F931F93CF93DF93EC0181
:1017D0006B015A0139014801E881F9810284F385DE
:1017E000E02D0995E881F9810288F389E02D8701D0
:1017F0009301A501B601CE010995A501480D591D1A
:1018000041505109E881F9810288F389E02D930163
:10181000B601CE010995E881F9810088F189E02DB2
:101820009401A501B601CE010995C60CD71CB601DD
:1018300061507109E881F9810088F189E02D9401F6
:10184000A501CE010995E881F9810688F789E02D87
:10185000CE01DF91CF911F910F91FF90EF90DF901C
:10186000CF90BF90AF909F908F907F906F90099492
:101870006F927F928F929F92AF92BF92CF92DF92A0
:10188000EF92FF920F931F93CF93DF935C01EB01D5
:101890006A01490138018701DC01ED91FC91621771
:1018A000730719F5641675062CF0962D872D3A01ED
:1018B000C92ED82E9601261937092F5F3F4F048C69
:1018C000F58DE02DA301BE01C5010995DF91CF91F2
:1018D0001F910F91FF90EF90DF90CF90BF90AF904E
:1018E0009F908F907F906F9008954615570591F4C3
:1018F0002617370724F0892D4B01C22FD82F9E01C0
:10190000281939092F5F3F4F068CF78DE02DA6016E
:10191000B401DACF0284F385E02D0995D501ED916C
:10192000FC910488F589E02D83019401A601BE0194
:10193000C5010995D501ED91FC910688F789E02D47
:10194000C501DF91CF911F910F91FF90EF90DF9034
:10195000CF90BF90AF909F908F907F906F900994A1
:10196000EF92FF920F931F93DC011A960D911C9139
:101970001B9718962D913C911997ED91FC9100A021
:10198000F1A1E02D7B0150E040E070E060E00995BE
:101990001F910F91FF90EF9008954F925F926F9279
:1019A0007F928F929F92AF92BF92CF92DF92EF92EF
:1019B000FF920F931F93CF93DF936C012B015A017A
:1019C00039014801DC01ED91FC910284F385E02DA1
:1019D0000995E201640C751CD601ED91FC91C615C8
:1019E000D7055CF40088F189E02D87019401A501F9
:1019F000BE01C60109952196EFCF0688F789E02D33
:101A0000C601DF91CF911F910F91FF90EF90DF9072
:101A1000CF90BF90AF909F908F907F906F905F908E
:101A20004F9009948F929F92AF92BF92CF92DF9284
:101A3000EF92FF920F931F93CF93DF93EC015B0123
:101A40004A016901E881F9810284F385E02D099555
:101A500095012C0D3D1D21503109E881F981048843
:101A6000F589E02D78018401A401B501CE01099525
:101A7000E881F9810688F789E02DCE01DF91CF91C9
:101A80001F910F91FF90EF90DF90CF90BF90AF909C
:101A90009F908F9009948F929F92AF92BF92CF9216
:101AA000DF92EF92FF920F931F93CF93DF93EC019E
:101AB0005B014A0169017801E881F9810284F385BB
:101AC000E02D0995C80CD91C860101501109E88147
:101AD000F9810488F589E02D9501A401B501CE01B5
:101AE0000995E881F9810688F789E02DCE01DF911B
:101AF000CF911F910F91FF90EF90DF90CF90BF900B
:101B0000AF909F908F900994EF92FF920F931F9345
:101B1000DC01ED91FC9100A0F1A1E02D09951F9150
:101B20000F91FF90EF9008950F931F93DC01ED91BB
:101B3000FC91068CF78DE02D09951F910F9108956A
:101B40000F931F93DC01ED91FC91048CF58DE02D3A
:101B500009951F910F910895DC01ED91FC9100848E
:101B6000F185E02D09942F923F924F925F926F92F0
:101B70007F928F929F92AF92BF92CF92DF92EF921D
:101B8000FF920F931F93CF93DF9300D000D000D02C
:101B9000CDB7DEB73C016A013E832D83FC82EB8228
:101BA0005801A41AB50AB7FE03C0B194A194B108B4
:101BB0008D809E80861A970A97FE03C09194819427
:101BC00091088A149B045CF0902F812F0D811E8157
:101BD0009D838E839C2D8D2D6B01692F782F0C1585
:101BE0001D055CF09D818E817E836D83692F782F2A
:101BF000902F812F8601C92ED82E1601201A310A66
:101C00002B012D813E81421A530A57FE03C0519485
:101C100041945108710137FE03C03FEFE31AF30A04
:101C2000F594E7948D819E81861797075CF5A1E076
:101C3000B0E0BA83A983C016D1064CF1D301ED916F
:101C4000FC910484F585E02D2B813C81A8016D81F8
:101C50007E818A149B041CF04D815E81B801C30112
:101C60000995E418F508F7FE0AC02D813E818981A7
:101C70009A81280F391F3E832D83E20CF31C0F5FDE
:101C80001F4FD9CF2FEF3FEF3A832983D4CF26962A
:101C90000FB6F894DEBF0FBECDBFDF91CF911F917D
:101CA0000F91FF90EF90DF90CF90BF90AF909F90FB
:101CB0008F907F906F905F904F903F902F900895FE
:101CC00060934404709345048093460490934704C2
:101CD000645D7E4F8F4F9F4F60934004709341042B
:101CE000809342049093430482E090E090933F04F9
:101CF00080933E040E94870560933A0470933B04EE
:101D000080933C0490933D040895CF92DF92EF922C
:101D1000FF920F931F930E9487058B019C01C09037
:101D20003A04D0903B04E0903C04F0903D04609174
:101D300044047091450480914604909147040C1925
:101D40001D092E093F09083E134021053105E0F029
:101D5000DC01CB010196A11DB11D80934404909339
:101D60004504A0934604B0934704B701A601485127
:101D70005C4F6F4F7F4F40933A0450933B04609306
:101D80003C0470933D04C7CF1F910F91FF90EF90DB
:101D9000DF90CF9008954F925F926F927F928F92D3
:101DA0009F92AF92BF92CF92DF92EF92FF920F93EA
:101DB0001F93CF93DF934B015C0180913604909188
:101DC0003704A0913804B091390488159905AA0503
:101DD000BB0509F4C6C08CE3C82ED12CE12CF12C34
:101DE000C501A70196010E94732960934C04CA01A2
:101DF000B901A70196010E94732960934D04C501A2
:101E0000B40120E13EE040E050E00E947329CA01A5
:101E1000B90128E130E040E050E00E94732960936E
:101E20004E04C501B40120E831E541E050E00E94D4
:101E3000732969017A01CA01B9016C5F7F4F8F4F25
:101E40009F4F27E030E040E050E00E9473296F5F31
:101E500060934F04412C512C320140E004E610E025
:101E6000C0E9D1E0242F30E02E54384FF901E3705F
:101E7000FF273097F9F4C901B8010E945F29892B27
:101E800031F4C901BE010E945F29892B99F48EE6C5
:101E900091E0A0E0B0E0480E591E6A1E7B1ED301FF
:101EA000C201AA27BB27C816D906EA06FB0638F0E6
:101EB0004F5FD8CF8DE691E0A0E0B0E0ECCF40934B
:101EC0005204C90164E670E00E945F29EC01C90177
:101ED00060E971E00E945F29309721F42097D9F4DE
:101EE0000097C9F04DE651E060E070E0441A550AF1
:101EF000660A770AC418D508E608F708AAE2B1E02E
:101F000020E0213069F43097E9F5209711F400972B
:101F1000C9F54DE106C04EE651E060E070E0E6CF65
:101F20004C9150E070E060E031E0320FC416D5060D
:101F3000E606F70640F0C41AD50AE60AF70A119633
:101F4000232F3C30F1F62F5F20935104C394C092AD
:101F500050048092360490923704A0923804B092D4
:101F60003904DF91CF911F910F91FF90EF90DF9097
:101F7000CF90BF90AF909F908F907F906F905F9029
:101F80004F9008954CE1CDCF80916F0490917004F3
:101F9000A0917104B091720480936B0490936C04CF
:101FA000A0936D04B0936E048091730490917404B7
:101FB000A0917504B09176048093670490936804AF
:101FC000A0936904B0936A04089520911304260F26
:101FD0003327331F21323105ECF42091E104FC0159
:101FE00090E080E0243069F082E00895A09113042D
:101FF0002191AC014D505C4FA40FB52FB11D2C9316
:102000000196861798F380911304680F6093130468
:1020100080E0089581E008951092E10481E08093CA
:10202000E0041092BB0461E082E10E94FD0361E0E4
:1020300083E10E94FD03E9EBF0E080818E7F8083E5
:1020400080818D7F808388E48093B80085E48093CD
:10205000BC000895CF93DF9391E09093F20388231F
:10206000B9F0C091B800D091BA008091BC008A7BD1
:102070008093BC0060E082E10E94FD0360E083E1A8
:102080000E94FD030E940C10D093BA00C093B800C8
:10209000DF91CF9108958F929F92AF92BF92CF928E
:1020A000DF92EF92FF920F931F93CF93DF93D09124
:1020B0000A05D13208F0D7C0182FC09109050E9437
:1020C0005C046B017C018091E10481116BC082E0B2
:1020D0008093E1041093E0048FEF8093DF0410926B
:1020E000DE04D093DD04A9EEB4E0EDEBF4E080E093
:1020F000D81391C01092BC048091BC04CC0FC82BA3
:10210000C093BC048091BB04813009F088C0109258
:10211000BB040E945C046B017C018091BC04809331
:10212000BB008091E3049091E404A091E504B09198
:10213000E604892B8A2B8B2BA1F00E945C04009172
:10214000E3041091E4042091E5043091E6046C1955
:102150007D098E099F09061717072807390708F414
:1021600042C08091BC0083FDD8CF85EC8093BC0039
:102170000E945C046B017C018091E104823009F4CF
:1021800050C08091DF048F3F09F46FC08091DF045D
:10219000803209F46CC08091DF04803309F469C097
:1021A00084E026C08091E3049091E404A091E504CA
:1021B000B091E604892B8A2B8B2B09F484CF0E94E3
:1021C0005C048090E3049090E404A090E504B09057
:1021D000E6046C197D098E099F0986169706A806E4
:1021E000B90608F070CF8091E2040E942A1085E0C1
:1021F0001092E80410920A051092E704DF91CF9143
:102200001F910F91FF90EF90DF90CF90BF90AF9014
:102210009F908F9008959D9191938F5F69CF85EEE8
:10222000A5CF8091E3049091E404A091E504B091DE
:10223000E604892B8A2B8B2B09F49ECF0E945C0429
:102240000091E3041091E4042091E5043091E60448
:102250006C197D098E099F0906171707280739078A
:1022600008F08ACFC0CF81E0C3CF80E0C1CF82E049
:10227000BFCF83E0BDCFE0919A0480919904E81725
:1022800030F4F0E0E556FB4F808190E008958FEF49
:102290009FEF089590919A04809199042FEF3FEF5A
:1022A000981748F4E92FF0E0E556FB4F208130E025
:1022B0009F5F90939A04C901089580919904909129
:1022C0009A04891B990B0895CF92DF92EF92FF92A7
:1022D0000F931F93CF93DF937C01CB018A01209151
:1022E000E704222389F0EB016B01C40ED51ECC1547
:1022F000DD0569F06991D701ED91FC910190F081C4
:10230000E02DC7010995F3CF642F0E94E50FC801A6
:10231000DF91CF911F910F91FF90EF90DF90CF90C1
:102320000895CF93DF931F92CDB7DEB769832091D5
:10233000E7042223F9F020910A05203258F021E029
:1023400030E0FC013383228390E080E00F90DF9146
:10235000CF9108958091E804E82FF0E0E751FB4F1A
:10236000998190838F5F8093E80480930A0581E0D0
:1023700090E0ECCF61E0CE0101960E94E50FF7CF2F
:10238000CF93DF93EC018B818823A1F0888191E0CA
:102390009093E704809309051092E80410920A05CF
:1023A00081E00E944B1091E0811190E0892FDF9134
:1023B000CF91089510929A04109299041092E80413
:1023C00010920A050E940C1084E995E090934B044A
:1023D00080934A0485E995E09093490480934804EA
:1023E00081E08B83CE010E94C011982F8111CECF46
:1023F000DDCFFC01908190539A3008F090E081810C
:1024000080532AE0929F800D11240895DC0150E052
:10241000E6E9F0E081E0861730F49491490F511D10
:102420008F5F3196F8CF633038F0CD0183709927F4
:10243000892B11F44F5F5F4F9D012D5F3F4F369504
:102440002795369527956DE671E0A69FC001A79F59
:10245000900DB69F900D11240197820F931F840F4A
:10246000951F0895089590E080E008951F93CF93FD
:10247000DF93DC011496ED91FC91E417F50710F45D
:1024800090E01FC0122FEA01FC018181928120811E
:1024900031E03093E704209309051092E80410928C
:1024A0000A05DC01ED91FC910280F381E02D099594
:1024B000C817D90729F7812F0E944B1091E081118D
:1024C000DFCF892FDF91CF911F9108952F923F92F7
:1024D0004F925F926F927F928F929F92AF92BF9234
:1024E000CF92DF92EF92FF920F931F93CF93DF93E0
:1024F0005C011B016A01F12CE12CD50114968D9130
:102500009C9186010E191F098017910708F48C0110
:10251000F501D0810E945C042B013C018091E10413
:10252000811172C0C02F013208F0C0E2F1E0F093D7
:10253000E10421E0C601801B910BE816F90608F4BE
:1025400020E02093E0048FEF8093DF041092DE04FC
:102550008C0F8093DD04A1E0A093BC048091BC04A7
:10256000DD0FD82BD093BC048091BB04813009F0DF
:1025700090C01092BB040E945C042B013C0180912E
:10258000BC048093BB008091E3049091E404A0918B
:10259000E504B091E604892B8A2B8B2BA1F00E94D5
:1025A0005C042091E3043091E4044091E5045091EF
:1025B000E60464197509860997092617370748073D
:1025C000590708F442C08091BC0083FDD8CFB5EC18
:1025D000B093BC000E945C042B013C018091E1049B
:1025E000813009F45AC08091DE048C1710F4C09138
:1025F000DE04ADEBB4E0EBE9F4E080E08C1751F1E0
:102600009D9191938F5FFACF8091E3049091E404C0
:10261000A091E504B091E604892B8A2B8B2B09F459
:102620007DCF0E945C042091E3043091E40440914A
:10263000E5045091E604641975098609970926177F
:1026400037074807590708F069CF8091E2040E94D4
:102650002A10C0E010929A04C0939904C017110682
:1026600009F057C041018E0C9F1CE401CE0188196E
:1026700099098017910798F5D50111968D919C9134
:10268000DC01ED91FC910284F385E02D099589939D
:10269000EDCFE5EEE093BC009DCF8091E3049091F7
:1026A000E404A091E504B091E604892B8A2B8B2BDE
:1026B00009F494CF0E945C042091E3043091E40477
:1026C0004091E5045091E60464197509860997095B
:1026D000261737074807590708F080CFB6CFE00E16
:1026E000F11EEC14FD0408F408CF81E0DF91CF91D6
:1026F0001F910F91FF90EF90DF90CF90BF90AF9020
:102700009F908F907F906F905F904F903F902F9011
:10271000089580E0EBCFCF93DF9300D0CDB7DEB745
:102720008FE08A8321E041E050E0BE016E5F7F4F81
:1027300080919704909198040E94361241E050E0F5
:10274000BE016F5F7F4F80919704909198040E9423
:10275000661289810F900F90DF91CF910895EF92CB
:10276000FF920F931F93CF93DF93CDB7DEB72A97D6
:102770000FB6F894DEBF0FBECDBF8C01CE0101961F
:102780007C0188E0F70111928A95E9F7F80135811B
:102790002AE0832F622F0E943F29982F880F890FEC
:1027A000880F830F8A833481832F0E943F29982FBB
:1027B000880F890F880F830F8B833381832F0E94AB
:1027C0003F29982F880F890F880F830F8C83808172
:1027D0004281618190E00E940612069667E070E0F7
:1027E0000E944B29811101C087E08D83F80132815D
:1027F0002AE0832F622F0E943F29982F880F890F8C
:10280000880F830F8E833181832F0E943F29982F59
:10281000880F890F880F830F8F833081832F0E9449
:102820003F29982F880F890F880F830F888721E011
:1028300048E050E0B70180919704909198040E947D
:1028400036120E948B139FE099878F778A8721E049
:1028500042E050E0BE01675F7F4F80919704909106
:1028600098040E9436122A960FB6F894DEBF0FBE67
:10287000CDBFDF91CF911F910F91FF90EF90089501
:10288000EF92FF920F931F93CF93DF9300D000D06E
:1028900000D01F92CDB7DEB78C011982E09097046B
:1028A000F090980420E041E050E0BE016F5F7F4F60
:1028B000C7010E943612882341F047E050E0BE0174
:1028C0006F5F7F4FC7010E946612E981EF77FA813F
:1028D000FB805D814E814F778F81282F30E094E01F
:1028E000359527959A95E1F7922F990F990F291B06
:1028F000220F280FD8012C93842F90E024E0959587
:1029000087952A95E1F7982F990F990F891B880FC2
:10291000840F11968C931197652F70E034E07595B4
:1029200067953A95E1F7862F880F880F681B660F29
:10293000650F12966C9312974F2D50E064E05595F9
:1029400047956A95E1F7842F880F880F481B440F3D
:102950004F0D13964C9313972F2F30E074E035955D
:1029600027957A95E1F7822F880F880F281B220F71
:102970002F0F14962C9314978E2F90E0F4E09595DA
:102980008795FA95E1F7982F990F990F891B880F72
:102990008E0F15968C93C80127960FB6F894DEBF5C
:1029A0000FBECDBFDF91CF911F910F91FF90EF90A0
:1029B0000895CF93DF93EC018AE891E099838883AF
:1029C0008CA19DA10E94812A89A19AA197FD05C091
:1029D00060E0DF91CF910C942B04DF91CF910895AB
:1029E000CF93DF93EC010E94D914CE01DF91CF91F8
:1029F0000C94812AFC0101900020E9F73197AF0186
:102A0000481B590BBC018BE095E00C94970586EBB5
:102A100091E00C94FA140F931F93CF93DF938C01E2
:102A2000D0E0C0E0F801EC0FFD1F6491662341F097
:102A30008BE095E00E943706892B11F02196F2CFAA
:102A40000E9407158C0F9D1FDF91CF911F910F9151
:102A500008958F929F92AF92BF920F931F93CF933F
:102A6000DF93CDB7DEB7A1970FB6F894DEBF0FBEE8
:102A7000CDBF19A2423008F44AE08E010F5D1F4F0E
:102A8000842E912CB12CA12CA50194010E947329B4
:102A9000E62FB901CA01EA30F4F4E05DD801EE9303
:102AA0008D01232B242B252B79F790E080E01097C4
:102AB00019F0CD010E94FA14A1960FB6F894DEBF6A
:102AC0000FBECDBFDF91CF911F910F91BF90AF90FF
:102AD0009F908F900895E95CE1CF682F70E090E0BF
:102AE00080E04AE00C942915CF93DF930E946D1586
:102AF000EC010E9407158C0F9D1FDF91CF91089567
:102B00000C94FA14CF93DF93EC01688170E060536A
:102B1000784F90E080E04AE00E9429158FE20E9401
:102B2000840689810E946D158FE20E9484068A8145
:102B30000E946D1589EB91E00E94801588814A8181
:102B4000698190E00E940612069667E070E00E949C
:102B50004B29880F991F880F991F80509F4F0E9403
:102B600080158CEB91E00E9480158B810E946D1581
:102B70008AE30E9484068C810E946D158AE30E947C
:102B800084068D810E946D15DF91CF910C940715FD
:102B9000CF93DF930E94FA14EC010E9407158C0F6B
:102BA0009D1FDF91CF9108958091B5059091B60555
:102BB000CB9709F046C08FEB91E00E94C815709149
:102BC000B8056091B9055091BA054091BB053091A7
:102BD000BC052091BD059091BE058091BF05709305
:102BE0005F046093600450936104409362043093E7
:102BF00063042093640490936504809366040E94A8
:102C0000850E6093530470935404809355049093FD
:102C100056041092B8051092B9051092BA05109298
:102C2000BB051092BC051092BD051092BE05109216
:102C3000BF051092B6051092B50581E08093B705E7
:102C400008951092B8051092B9051092BA05109225
:102C5000BB051092BC051092BD051092BE051092E6
:102C6000BF051092B6051092B50508950F93E09137
:102C7000B505F091B605282F30E040E050E060E067
:102C800070E080E090E00E2F0E94A329A091B8058B
:102C90002A2B2093B8052091B905322B3093B90522
:102CA0002091BA05422B4093BA052091BB05522BC7
:102CB0005093BB052091BC05622B6093BC0520910D
:102CC000BD05722B7093BD052091BE05822B8093AC
:102CD000BE058091BF05982B9093BF053196F09368
:102CE000B605E093B505FC971CF00F910C94D41534
:102CF0000F910895CF92DF92EF92FF92CF93DF93DF
:102D00000E9487056B018091C7050E94D403409102
:102D1000C1055091C2059601241B350B2C3B324056
:102D2000CCF02091C3053091C405E601C21BD30B42
:102D3000C233D1057CF09091C005609123016813E6
:102D400010C0911107C0D092C405C092C30581E0A4
:102D50008093C005DF91CF91FF90EF90DF90CF90EF
:102D600008959923B9F3241B350B2D3D354014F0FC
:102D70000E94D4158091C3059091C4059093C2051B
:102D80008093C10580E0C639D1050CF081E00E9436
:102D900036161092C005DECF0E940A2B85ED809377
:102DA000BC008091E3049091E404A091E504B0910B
:102DB000E6040796A11DB11D23E0B695A79597954A
:102DC00087952A95D1F72091BC0024FD03C010926D
:102DD000E10408954091E3045091E4046091E50416
:102DE0007091E604452B462B472B69F30097A1050C
:102DF000B10541F02AE22A95F1F700C00197A10937
:102E0000B109E1CF8091E2040C942A10EF92FF9275
:102E10000F931F93CF93DF93CDB7DEB72B970FB6EA
:102E2000F894DEBF0FBECDBF8C017A014BE050E0BD
:102E3000CE0101960E941E26CE010A960E94F9112B
:102E4000F8018083E981E154E33118F50E2E000C7E
:102E5000FF0BE35DF84E0C9495297B174917491732
:102E60008F174917791749174917491740174917F5
:102E7000491782178D178B17491749174917891753
:102E80008A81813691F18B818E3689F187E0F80154
:102E90008183CE0105960E94F911F801828348E0F2
:102EA00050E0B701CE0101960E941E26CE01019688
:102EB0000E94F911F8018383CE0104960E94F91152
:102EC000F8018483CE0107960E94F911F8018583E9
:102ED0002B960FB6F894DEBF0FBECDBFDF91CF911A
:102EE0001F910F91FF90EF90089581E0D0CF86E081
:102EF000CECF82E0CCCF8B81823711F088E0C7CF74
:102F000084E0C5CF8B81823711F085E0C0CF83E0AC
:102F1000BECF89E0BCCF8AE0BACF8BE0B8CF8CE0DF
:102F2000B6CF1F920F920FB60F9211242F933F939B
:102F30008F939F93AF93BF9380918F049091900450
:102F4000A0919104B091920430918E0423E0230F5C
:102F50002D3758F50196A11DB11D20938E04809345
:102F60008F0490939004A0939104B0939204809165
:102F7000930490919404A0919504B09196040196C5
:102F8000A11DB11D8093930490939404A093950484
:102F9000B0939604BF91AF919F918F913F912F91E4
:102FA0000F900FBE0F901F90189526E8230F0296E2
:102FB000A11DB11DD2CF1F920F920FB60F921124F7
:102FC0002F933F934F935F936F937F938F939F9331
:102FD000AF93BF93EF93FF93E0911E01F0911F0118
:102FE0000995FF91EF91BF91AF919F918F917F9143
:102FF0006F915F914F913F912F910F900FBE0F9066
:103000001F9018951F920F920FB60F9211242F93B5
:103010003F934F935F936F937F938F939F93AF9360
:10302000BF93EF93FF93E0911C01F0911D0109956F
:10303000FF91EF91BF91AF919F918F917F916F9190
:103040005F914F913F912F910F900FBE0F901F9066
:1030500018951F920F920FB60F9211242F933F9342
:103060004F935F936F937F938F939F93AF93BF9390
:10307000EF93FF938BE095E00E941506FF91EF918F
:10308000BF91AF919F918F917F916F915F914F9180
:103090003F912F910F900FBE0F901F9018951F9288
:1030A0000F920FB60F9211242F938F939F93EF934C
:1030B000FF93E0911B05F0911C058081E0912105B3
:1030C000F091220582FD1BC09081809124058F5FC5
:1030D0008F7320912505821741F0E0912405F0E0DF
:1030E000E55FFA4F958F80932405FF91EF919F91B3
:1030F0008F912F910F900FBE0F901F901895808188
:10310000F4CF1F920F920FB60F9211242F933F937B
:103110004F935F936F937F938F939F93AF93BF93DF
:10312000EF93FF938091B900887F803609F44AC0FD
:10313000F0F5883209F4A7C018F5803109F49BC076
:10314000B8F4882309F4F9C0883009F494C0FF91D9
:10315000EF91BF91AF919F918F917F916F915F910F
:103160004F913F912F910F900FBE0F901F90189588
:10317000883109F488C0803251F78093DF0414C08D
:10318000803409F49DC040F48033B9F38833F9F6F4
:103190008093DF0485ECB0C0803509F485C08835A4
:1031A00009F496C0883499F60E94CE16D0CF88399B
:1031B00009F48CC038F5883729F050F4883611F0BE
:1031C000803729F683E08093E1041092350457C0DC
:1031D000883809F47BC0803919F0803809F0B7CFFE
:1031E00080913504803208F071C0E091350481E0AF
:1031F0008E0F809335048091BB00F0E0EB5EFB4FB7
:1032000080833DC0803B39F0E0F4803A09F479C016
:10321000883A09F09CCF84E08093E1041092140472
:1032200010921304E0914A04F0914B0409958091A7
:10323000130481110FC081E0809313041092F303F3
:1032400009C0803C09F4A6CF883C09F4A3CF883B91
:1032500009F07DCFE091140481E08E0F8093140477
:10326000F0E0ED50FC4F80818093BB0090911404FE
:103270008091130429C08091BC048093BB0085EC2D
:103280008093BC0064CF9091DE048091DD04981798
:1032900058F5E091DE0481E08E0F8093DE04F0E0CB
:1032A000E354FB4F8081E9CFE091DE0481E08E0F93
:1032B0008093DE048091BB00F0E0E354FB4F8083F9
:1032C0009091DE048091DD049817C8F285E8D8CF8C
:1032D000E091DE0481E08E0F8093DE048091BB00DC
:1032E000F0E0E354FB4F80838091E00481115CCFD8
:1032F00081E08093BB0484EA8093BC001092E104D7
:1033000026CF85EC8093BC001092E10480913504B7
:10331000803230F4E0913504F0E0EB5EFB4F108238
:103320006091350470E0E0914804F091490485E132
:1033300094E00995109235040ACF1092DF0434CF3F
:10334000CF93DF9310920E0510920D0588EE93E057
:10335000A0E0B0E080930F0590931005A0931105B5
:10336000B09312052AE331E030930C0520930B054E
:1033700025EC30E0309318052093170524EC30E05D
:1033800030931A052093190520EC30E030931C058A
:1033900020931B0521EC30E030931E0520931D0582
:1033A00022EC30E03093200520931F0526EC30E01E
:1033B00030932205209321051092240510922505B3
:1033C00010922605109227051092AB051092AA05BF
:1033D0008093AC059093AD05A093AE05B093AF0577
:1033E0008CE491E09093A9058093A80582E090E099
:1033F0009093C8058093C7051092C6051092C50525
:1034000081E0809323018091140681112AC060E03D
:1034100082E00E942B041092C4051092C305109202
:10342000C2051092C1051092C0051092B805109205
:10343000B9051092BA051092BB051092BC05109206
:10344000BD051092BE051092BF051092B7051092EF
:10345000B6051092B5058091B405827F8D7F80936B
:10346000B40581E0809314061092DA051092D90514
:103470002EE531E03093D8052093D7052BE030E0DE
:103480003093DC052093DB053093DE052093DD05CA
:103490003093E0052093DF053093E2052093E105AA
:1034A0001092ED051092E4051092E3051092E605E6
:1034B0001092E5058093EC058093EB052FEF3FEF2D
:1034C0003093EA052093E9053093E8052093E7055A
:1034D0008093EE051092EF051092F1051092F00521
:1034E0001092F3051092FA0510920106109202064E
:1034F0001092030610920406809300068093FD0547
:103500001092FE0592E09093FF058093F205CBE6C2
:10351000D1E0D093F705C093F6058BE691E00E94C9
:10352000E5299093FC058093FB05009709F476C08C
:10353000FC019E01119221503040E1F789E790E0B3
:103540009093F5058093F40586E090E09093F9055B
:103550008093F8058091F305882341F061E086E0CF
:103560000E942B0460E086E00E94FD03ECE8F6E098
:10357000E491F0E0EE0FFF1FE458F94F859194912C
:103580009093060680930506EEE6F6E0E491E0935C
:1035900007068AE891E09093D8058093D70588E0E4
:1035A000809308068BE08093090680930A061092A8
:1035B0000B0610920C0610920E0610920D06109239
:1035C00013068FEF9FEF9093CA058093C90580E0A3
:1035D00098EF9093CC058093CB0580EE9FEF90936E
:1035E000CE058093CD0589E198EF9093D005809327
:1035F000CF0580E194E89093D2058093D10580EEC9
:1036000097E09093D4058093D3058FE190E0909359
:10361000D6058093D505DF91CF9108951092F705D7
:103620001092F6051092F5051092F4058DCFCF9308
:10363000DF93CDB7DEB76E970FB6F894DEBF0FBE3F
:10364000CDBF789484B5826084BD84B5816084BD2B
:1036500085B5826085BD85B5816085BD80916E0030
:10366000816080936E001092810080918100826061
:10367000809381008091810081608093810080919E
:1036800080008160809380008091B100846080938D
:10369000B1008091B00081608093B00080917A0089
:1036A000846080937A0080917A00826080937A00AF
:1036B00080917A00816080937A0080917A0080689E
:1036C00080937A001092C100E0911B05F0911C05D7
:1036D00082E08083E0911705F09118051082E09157
:1036E0001905F0911A058FEC808310922305E09163
:1036F0001F05F091200586E08083E0911D05F09183
:103700001E05808180618083E0911D05F0911E057A
:10371000808188608083E0911D05F0911E05808185
:1037200080688083E0911D05F0911E0580818F7D6A
:1037300080838FED91E00E94C81584E396E00E949B
:103740000B158BE296E00E940B158BEE91E00E9428
:10375000C8158091F8059091F90597FD59C061E071
:103760000E942B0460E08091F8050E94FD0381E037
:103770008093F30584E60E947903809197049091E9
:103780009804009711F00E94812A86E090E00E9440
:10379000E5298C0188E6D8018C9388EA95E0129699
:1037A0009C938E93119713961C92139780E290E04E
:1037B00015969C938E9314971093980400939704F6
:1037C00010929A04109299041092E80410920A053B
:1037D0000E940C1084E995E090934B0480934A0476
:1037E00085E995E0909349048093480481E0F801CD
:1037F0008383C8010E94C01181110DC082E092E054
:103800000E94C8158BE095E00E9489060E940A2B51
:103810001092F305AFCF84E190E00E944B27809394
:103820008D048AE090E00E944B278B8B8BE090E028
:103830000E944B278C8B8CE090E00E944B278D8B55
:103840008DE090E00E944B278E8BCE0101960E9466
:10385000401489814B816A8190E00E9406129C018C
:10386000A8E1B0E00E946C272C817B018C01E20E64
:10387000F11C011D111DA8019701ACE3B0E00E94ED
:1038800061272D817B018C01E20EF11C011D111DB0
:10389000A80197010E9461272E81620F711D811D71
:1038A000911D6D877E878F87988B0B891C892D8949
:1038B0003E89601B710B820B930B6431710581058E
:1038C00091050CF0BBC180918D0490E0019667E0FA
:1038D00070E00E945F2980938D0484E192E00E9451
:1038E000801580918D040E94741510918D0484E1DF
:1038F00090E00E944B27181729F0612F84E190E097
:103900000E9453277E014DE0E40EF11C0AE010E016
:10391000D701DD907D01C8010E944B27D81621F008
:103920006D2DC8010E9453270F5F1F4F0E301105E8
:1039300079F78DE592E00E94801580918D040E94B8
:103940007415E091C505F091C6052E2FE23098F46C
:10395000FF27EE0FFF1FE45EFE4F8AE796E191839B
:10396000808380916900213009F494C28C7F81604A
:1039700080936900E89A0E948B1390E0880F892F4A
:10398000881F990B892B09F48BC28CE692E00E9468
:10399000C815CE0101960E944014CE0101960E94E6
:1039A000821541E056E06AE076E0CE0101960E9481
:1039B0000617CE0101960E94AF13B6E4B0937C00C7
:1039C00080917A00806480937A0080917A0086FDED
:1039D000FCCF609178007091790070932201609320
:1039E000210184E66032E3E07E0734F0633AF3E0DD
:1039F0007F070CF493C284E1809320018BE792E06F
:103A00000E948015C0902101D09022010D2C000C45
:103A1000EE08FF084AE0C701B601F7FE0BC08DE2D1
:103A20000E94840666277727CB016C197D098E09D1
:103A30009F094AE00E9429150E94071583E892E039
:103A40000E948015809120010E94741580912001B0
:103A5000880F0E947903CE0143960E94401480E9AA
:103A600092E00E9480158B8989838C898A838D8955
:103A70008B838E898C838F898D83888D8E83CE01F5
:103A800001960E94821586E992E00E94801581E1EC
:103A900089831A82009197041091980420E041E0F4
:103AA00050E0BE016F5F7F4FC8010E94361288232D
:103AB00041F042E050E0BE016F5F7F4FC8010E94BD
:103AC00066126A8170E056E0759567955A95E1F740
:103AD000072E000C880B990B0E942E2620E030E068
:103AE00040E85EE30E948D266B017C01698170E0F5
:103AF00090E080E00E942C269B01AC01C701B6013A
:103B00000E947C276B017C014B015C01AC019B0195
:103B10000E943A29882309F428C28DE992E00E9484
:103B2000FA1489EA92E00E94C8158B898D878C89E6
:103B30008E878D898F878E89888B8F89898B888DD9
:103B40008A8B8091B705882309F450C490905F0454
:103B500080906004709061046090620450906304EF
:103B600040906404E0916504B0916604909257041B
:103B7000809258047092590460925A0450925B04E7
:103B800040925C04E0935D04B0935E044091530462
:103B900050915404609155047091560440937304FD
:103BA0005093740460937504709376041092B70573
:103BB0001091B4051E7F1093B40513FBCC24C0F8FC
:103BC00012FBDD24D0F816951170AA24A394B12C11
:103BD000F12CE12CF0E0292D382D472D562D652DA7
:103BE000742D8E2F9B2F0E2D0E94BE292170C70190
:103BF000877F459721F034E2E316F10409F4F0E001
:103C00004CE1E416F10409F44FC353E2E516F10464
:103C100009F03BC230E040E050E060E070E080E05E
:103C200090E0A0E0DF2E0E94D92909F049C30FEFF0
:103C3000E01AF00A2FEFA21AB20ACDCF60E082E0BC
:103C40000E942B0485E292E00E94801510E000E0C3
:103C5000312C212C198E412C512C3201AA24AA94EA
:103C6000BA2C912C812C0E9487056B0182E00E9466
:103C7000D4039E8F8D8F019709F0A7C0892809F082
:103C8000A4C02FEFA21AB20A09F49DC03BE0A3160C
:103C9000B1040CF098C0200E311E4AE0A416B10405
:103CA00009F091C0C101B5010E945F298B01680133
:103CB000012E000CEE08FF084AE0C701B601F7FE2E
:103CC0000BC08DE20E94840666277727CB016C1912
:103CD0007D098E099F094AE00E9429158DEB91E02C
:103CE0000E948015003111050CF0B0C088E392E00D
:103CF0000E94C81584E690E07C01E01AF10A870171
:103D0000083211050CF0B2C017FF02C00D5F1F4F43
:103D10001595079515950795119501951109065F5C
:103D20001F4FF0EECF2EF7E0DF2E053011050CF41B
:103D30009FC0F12CE12C9601E016F10614F030E062
:103D400020E050E040E0B70187ED95E00E94760763
:103D50002FEFE21AF20A3BE0E316F10461F70E944A
:103D6000810460ED77E080E090E00E94540501E07E
:103D700010E0EBE0EE2EF12CC8010197B7010E9494
:103D80005F29AB0130E020E0BC0187ED95E00E94A7
:103D90007607C801B7010E945F29AB0122EB3CE71F
:103DA000BC0187ED95E00E9476070E9481046AE0DD
:103DB00070E080E090E00E9454050F5F1F4F0937CC
:103DC0001105D1F69FCD10E000E00F5F1F4F0E945C
:103DD00087056419750986099709693C710581058C
:103DE0009105C8F00E9487052B013C01598D2FE1F8
:103DF00030E0511102C030E020E050E040E070E0DF
:103E000060E087ED95E00E9476070E948104898D2D
:103E100091E08927898F0D32A1E01A07A4F40E944E
:103E20008705BAE0CB0ED11CC61AD70AEBE0CE1636
:103E3000D10434F4B601DD0C880B990B0E945405B3
:103E40008D8C9E8C10CF10E000E031CFC8018654DD
:103E50009109C79788F084E492E00E94C81505365E
:103E600011050CF447CF0C3811058CF001E010E07F
:103E7000C12CA8EFDA2E5DCFC801855591094A976C
:103E800018F080E592E0E9CF86E592E0E6CF0456AF
:103E900011093ACF837F846080936900E99A6BCDE2
:103EA000CE0101960E94401446E156E06FE176E0B3
:103EB000CE0107960E940617298130E02053384F23
:103EC0008F8190E08053984F2817390708F45DCD13
:103ED0002817390709F071CD9A818885981708F459
:103EE00054CD98136ACD9B818985981708F44DCDE0
:103EF000981363CD9C818A85981708F446CD981352
:103F00005CCD9D818B85981708F43FCD981355CDD6
:103F10009E818C85981708F438CD4FCD6052734040
:103F2000072E000C880B990B0E942E2620E030E013
:103F300042E053E40E945A2820E030E040EA52E494
:103F40000E948D269B01AC0160E070E080EA92E463
:103F50000E947B2720E030E040EA51E40E947C2769
:103F60000E94D3286093200149CD26013701E894AF
:103F700077F82FEF3FEF4FE75FE7C301B2010E94F1
:103F80003A2981110DC02FEF3FEF4FE75FE7C301E3
:103F9000B2010E94272618161CF481EA92E0BFCDD8
:103FA0002FEF3FEF4FE75FE4C701B6010E942929D9
:103FB00018161CF485EA92E0B2CD2FEF3FEF4FE7E1
:103FC0005FECC701B6010E94272687FDF3CF20E0F2
:103FD00030E0A901C701B6010E94272687FF09C06A
:103FE0008DE20E94840646015701B7FAB094B7F8F3
:103FF000B0942AE037ED43EA5BE3C501B4010E94C7
:104000007C274B015C010E94D3286B017C010E943C
:104010002C269B01AC01C501B4010E947B274B01FA
:104020005C014AE0C701B6010E9429158EE20E9498
:10403000840620E030E040E251E4C501B4010E9472
:104040008D264B015C010E94D3286B01F12CE12CE1
:104050004AE0C701B6010E942915C701B6010E94B6
:104060002C269B01AC01C501B4010E947B2720E0F6
:1040700030E040E251E40E948D260E94D32890E077
:1040800080E04AE00E9429154CCD8AE3E816F1044D
:1040900009F00BC130E040E050E060E070E080E00B
:1040A00090E0A0E00E94D92909F018C18091B405E0
:1040B000F0FB80F9F0FB83F9D0FA82F910FB81F96B
:1040C0008093B4058091B40581FB222720F94091AB
:1040D0005A0444FB992790F9291384C182FB99273C
:1040E00090F910915B0413FB222720F992137AC1F7
:1040F00083FB882780F990915E0492FB992790F9C1
:10410000891370C10091590401FB992790F902FBB2
:10411000882780F9981709F465C1302F32953695B4
:104120003770042F0F70000F000F000F302B832FFC
:1041300090E004E0959587950A95E1F79195819532
:104140009109082F000F080F000F030F42954695A5
:104150004770912F9770392E330C330C330C932DFD
:10416000942B292F30E084E0359527958A95E1F747
:10417000319521953109322E330C320E330C390E24
:10418000398E812F82958F7020915C04122F1370CD
:104190001295107F812B482F50E094E0559547955C
:1041A0009A95E1F7519541955109142F110F140F6C
:1041B000110F180F822F82958695877020915D04CC
:1041C0002370222E220C220C220C222D282B822F2F
:1041D00090E034E0959587953A95E1F79195819532
:1041E0009109282E220C280E220C220EE695E69527
:1041F000B295BB0FBB0FB07CBE2BEB2FE295EF70DF
:104200008E2F880F880FE81BEE0FB25EEB0FAE2FDC
:10421000B0E020E833E341EE51E00E9461272B013A
:104220003C0122EB37E0FD01C901825B97408E170C
:104230009F070CF455C0EE54F84FCF0164E670E0D0
:104240000E945F295C01CF0160E971E00E945F2953
:104250004C01AAE2CA2EA1E0DA2EEE24E394F12C5E
:10426000312CE370FF27E214F3040CF065C022E068
:10427000E216F10409F051C0309709F04EC0A114C4
:10428000B10421F48114910409F047C030E8430ED1
:104290003BE3531E36E2631E711CBFEFEB1AFB0AB1
:1042A0002FEFC21AD20ADFCF1F2F30E040E050E0DC
:1042B00060E070E080E090E0A0E00E94D92911F079
:1042C00091E0F927ABE3AA16B10409F0B0CC8091D4
:1042D000B405F0FB80F9C0FA83F9EECECF2EF0CF13
:1042E000C90183709927892BA9F4C90164E670E09C
:1042F0000E945F29892B39F4C90160E971E00E94AD
:104300005F29892B39F4B0E84B0EB1E55B1EB1E0B3
:104310006B1E711C2F5F3F4F87CFD6018C91A82F4A
:10432000B0E020E831E541E050E00E946127460E10
:10433000571E681E791EB1CFE98D2E2F30E0A0E107
:10434000BEE00E946C276B017C01202F30E0ACE3C3
:10435000B0E00E946C27C60ED71EE81EF91E212F62
:104360002150330BD90120E831E541E050E00E94B3
:104370009B29C60ED71EE81EF91E4C0C5D1C6E1C38
:104380007F1C40926F04509270046092710470928E
:1043900072040E94850EC0906F04D0907004E0906B
:1043A0007104F090720400917304109174042091D0
:1043B000750430917604C01AD10AE20AF30AC60ED7
:1043C000D71EE81EF91ED701C6018058994CA44893
:1043D000BF4481389D48A140B54A08F473C082ECBF
:1043E00092E002C08CEA92E00E94C8151F890E89F3
:1043F00090E080E030E020E0FC01E20FF31F73E08A
:10440000F695E7957A95E1F7E558FB4F10822F5F17
:104410003F4F2B30310581F70B968937910551F7C6
:104420008EE593E00E94801580917B048B638093DE
:104430007B048BEF810F853008F045C186E693E061
:104440000E94801580917B04806880937B0480911A
:104450007C04876080937C048DE693E00E94801545
:10446000809180048F6080938004812F65E00E949A
:104470003F29923009F4EBC108F0DBC18091880438
:104480008064913009F4E6C10C3008F00C5014310E
:1044900008F00F5F0C3009F4EBC10C3008F051C28A
:1044A000E02FF0E0EA5AFD4D0C949529382447247A
:1044B0009324A524AD24B724C124D024DA24E224F3
:1044C000F124F9240E94850EC616D706E806F906DF
:1044D00009F4AAC00E94850EC61AD70AE80AF90A8A
:1044E00018E7C116D104E104F10408F0A8C080EE79
:1044F00092E00E94C8150E94C40F0E94850EAB0175
:10450000BC0180916F0490917004A0917104B091EE
:104510007204009173041091740420917504309119
:104520007604801B910BA20BB30B7C018D01E40E72
:10453000F51E061F171FC801B7016115710581051A
:10454000910509F453CF0E94600E0E94850E0E94CF
:10455000CB0E10914C040E94850E0E94CB0E009150
:104560004D040E94850E0E94CB0EF0904E040E94D6
:10457000850E0E94CB0EE09050040E94850E0E9492
:10458000CB0ED09051040E94850E0E94CB0E8091DC
:10459000520490E09C012E54384F203D47E03407F0
:1045A00014F0205D37402F83D886E986FA860B8782
:1045B0001C8787E393E00E9480158F81898388851B
:1045C0008A8389858B838A858C838B858D838C8573
:1045D0008E83CE0101960E9482150E94870500916C
:1045E0007704109178042091790430917A04601B4B
:1045F000710B820B930B613C744D8140910508F463
:10460000F5CE8EE493E00E94C815CE0107960E9475
:10461000AF130E94870560937704709378048093AA
:10462000790490937A04E2CE0E94850E8B019C015E
:104630000C191D092E093F096801790151CF80919C
:104640006B0490916C04A0916D04B0916E04409144
:104650006704509168046091690470916A04841B36
:10466000950BA60BB70BC0906F04D0907004E09030
:104670007104F0907204409173045091740460913D
:10468000750470917604C41AD50AE60AF70A8C15E7
:104690009D05AE05BF0539F40E94C40F8FEF92E06F
:1046A0000E94C8152ACFC81AD90AEA0AFB0A0E9432
:1046B000C40F8AE193E028E7C216D104E104F104B3
:1046C00008F092CEEBCF86EF810F853040F483E780
:1046D00093E00E94801580917C048867BBCE81EFB7
:1046E000810F853078F489E793E00E9480158091EE
:1046F0007E048C6F80937E0480917F048160809320
:104700007F04AACE8CEE810F8530D0F483E793E04E
:104710000E94801580917C04886780937C0482E8E5
:1047200093E00E94801580917F048E6080937F04C7
:1047300087E893E00E94801580918004806F93CE7B
:1047400087EE810F853068F486E693E00E9480153D
:1047500080917B04806880937B0480917C048760D7
:10476000DCCF82EE810F853018F38DED810F85301F
:10477000C0F486E693E00E94801580917B048068F7
:1047800080937B0480917C04876080937C048DE619
:1047900093E00E948015809180048F608093800454
:1047A000C7CF88ED810F853040F483E793E00E9406
:1047B000801580917C048867E8CF83ED810F853078
:1047C000C0F489E793E00E94801580917E048C6F8D
:1047D00080937E0480917F04816080937F0482E8CF
:1047E00093E00E94801580917F048E6080937F0407
:1047F0003CCE8EEC810F853050F483E793E00E942D
:10480000801580917C04886780937C04E8CF89ECD4
:10481000810F853008F029CE86E693E00E9480154E
:1048200080917B04806880937B0480917C04876006
:10483000EBCF933091F0943009F026CE809188042C
:10484000806C809388048091890483600EC080917D
:104850008804806C8093880417CE80918804806CD3
:1048600080938804809189048160809389040CCEB0
:104870008DE893E00E94801580918604806C80937F
:104880008604809187048760809387045AC085E9F5
:1048900093E00E9480158091810480688093810458
:1048A000809182041530D8F583608093820489E971
:1048B00093E00E9480158091880488638093880427
:1048C0000E94071570E060E087ED95E00E943407D4
:1048D00084E00E94D4038E898650803108F491C010
:1048E00080ED93E00E94C8150E94810480918D04A0
:1048F00081119BC164EF71E080E090E00E9454055B
:1049000080E0E82E80E0F82EEF2809F456C80E94D7
:104910000106882309F451C80E9400004EC8876030
:1049200080938204CDCF8EE993E00E948015809120
:104930008204806C809382048091830483608093DE
:104940008304153008F0BCCFB2CF84EA93E00E9414
:104950008015809183048C63F2CF8AEA93E00E94F1
:104960008015809184048E6180938404EACF86E66A
:1049700093E00E9480158091810488678093810470
:10498000E0CF80EB93E00E94801580918404806EDC
:104990008093840480918504836080938504D1CFC3
:1049A00087EB93E00E948015809186048F6380934B
:1049B0008604C7CF8FEB93E00E9480158091850419
:1049C000806FEBCF85EC93E00E9480158091870487
:1049D000806C80938704809188048360809388042E
:1049E000B0CF83E793E00E948015809187048867A9
:1049F0004BCF8BEC93E00E948015809181048E60F8
:104A0000BDCF80918D048111A1C080918B049091C4
:104A10008C040BEF1FEF9C01990F440B550B298F52
:104A20003A8F4B8F5C8F680135E0C30ED11CF12C9F
:104A3000E12C4801012E000CAA08BB08B701655003
:104A40007109072E000C880B990B0E942E262B0152
:104A50003C01C501B4010E942E26A30192010E94CF
:104A6000FB2720EE3EE245E652E40E948D2620E040
:104A700030E044E353E40E947C270E94CC28CB0121
:104A800068E671E00E945F29BC01990F880B990BC1
:104A90000E942E2620E030E04FE753E40E948D264E
:104AA00020E030E044EB53E40E945A282B013C0103
:104AB000698D7A8D8B8D9C8D0E942E269B01AC0179
:104AC000C301B2010E947C270E94CC28CB0160E088
:104AD00071E00E945F298095853508F079C0982F94
:104AE000990F990F282F291B215030E0322F2227B0
:104AF0002227387F982F990F890F90E053E09595E2
:104B000087955A95E1F7282B392BA601B70187ED38
:104B100095E00E9476078FEFE81AF80A9BE0E91605
:104B2000F10409F08BCF0F5F1F4F0630110509F01C
:104B30007ACF80918B0490918C04019660E071E0B3
:104B40000E945F2990938C0480938B04B12CA12C3C
:104B500010E000E06501F12CE12CF60123E0F69570
:104B6000E7952A95E1F7E558FB4F808190E02C2DE1
:104B7000277002C0959587952A95E2F780FF50C06F
:104B80008CEE93E00E948015E0918D04F0E0EE0F32
:104B9000FF1FE753FA4F20813181A801B70187ED4C
:104BA00095E00E947607AFEFEA1AFA0ABFEFCB1A38
:104BB000DB0AEBE0EE16F10481F60E9407150F5FA9
:104BC0001F4FFBE0AF0EB11C0B30110519F68CCE58
:104BD0008A3A80F48555282F220F280F48E0249F19
:104BE00090011124207E3770982F990F990F891BFF
:104BF000815083CF8A5A982F990F990F282F291BFC
:104C0000215058E0259F90011124207E3770982F65
:104C1000990F890F90E0982F88278827987F73CF66
:104C20008FEE93E00E948015BECF68E873E180E0CC
:104C300090E064CE87ED95E00C94D914FB01DC0183
:104C400002C005900D9241505040D8F708950E943F
:104C5000692608F481E00895E89409C097FB3EF4C2
:104C600090958095709561957F4F8F4F9F4F9923B9
:104C7000A9F0F92F96E9BB279395F6958795779537
:104C80006795B795F111F8CFFAF4BB0F11F460FFF7
:104C90001BC06F5F7F4F8F4F9F4F16C0882311F04F
:104CA00096E911C0772321F09EE8872F762F05C063
:104CB000662371F096E8862F70E060E02AF09A95FE
:104CC000660F771F881FDAF7880F9695879597F9F3
:104CD0000895990F0008550FAA0BE0E8FEEF16168D
:104CE0001706E807F907C0F012161306E407F507E0
:104CF00098F0621B730B840B950B39F40A2661F054
:104D0000232B242B252B21F408950A2609F4A140F6
:104D1000A6958FEF811D811D08950E94A0260C94F9
:104D200011270E94032738F00E940A2720F09523BC
:104D300011F00C94FA260C94002711240C944527AA
:104D40000E94222770F3959FC1F3950F50E0551FE5
:104D5000629FF001729FBB27F00DB11D639FAA27D0
:104D6000F00DB11DAA1F649F6627B00DA11D661F1F
:104D7000829F2227B00DA11D621F739FB00DA11D40
:104D8000621F839FA00D611D221F749F3327A00DFA
:104D9000611D231F849F600D211D822F762F6A2F96
:104DA00011249F5750409AF0F1F088234AF0EE0FFB
:104DB000FF1FBB1F661F771F881F91505040A9F728
:104DC0009E3F510580F00C94FA260C9445275F3FD6
:104DD000E4F3983ED4F3869577956795B795F79564
:104DE000E7959F5FC1F7FE2B880F911D96958795DC
:104DF00097F9089597F99F6780E870E060E008955B
:104E00009FEF80EC089500240A94161617061806E2
:104E10000906089500240A941216130614060506BE
:104E20000895092E0394000C11F4882352F0BB0F4F
:104E300040F4BF2B11F460FF04C06F5F7F4F8F4FB2
:104E40009F4F089557FD9058440F551F59F05F3FED
:104E500071F04795880F97FB991F61F09F3F79F09C
:104E600087950895121613061406551FF2CF46951E
:104E7000F1DF08C0161617061806991FF1CF8695A0
:104E80007105610508940895E894BB276627772784
:104E9000CB0197F90895F999FECF92BD81BDF89A9B
:104EA000992780B50895262FF999FECF1FBA92BD94
:104EB00081BD20BD0FB6F894FA9AF99A0FBE0196FB
:104EC00008950E946C27A59F900DB49F900DA49FFC
:104ED000800D911D11240895A29FB001B39FC001C0
:104EE000A39F700D811D1124911DB29F700D811D16
:104EF0001124911D08955058BB27AA270E9493277B
:104F00000C9411270E94032738F00E940A2720F0F2
:104F100039F49F3F19F426F40C9400270EF4E09521
:104F2000E7FB0C94FA26E92F0E94222758F3BA17C0
:104F3000620773078407950720F079F4A6F50C94AF
:104F400044270EF4E0950B2EBA2FA02D0B01B901CA
:104F500090010C01CA01A0011124FF27591B99F0EF
:104F6000593F50F4503E68F11A16F040A22F232FFB
:104F7000342F4427585FF3CF469537952795A7954B
:104F8000F0405395C9F77EF41F16BA0B620B730BF2
:104F9000840BBAF09150A1F0FF0FBB1F661F771F63
:104FA000881FC2F70EC0BA0F621F731F841F48F418
:104FB000879577956795B795F7959E3F08F0B0CFA1
:104FC0009395880F08F09927EE0F97958795089588
:104FD0000E94032760F080E891E009F49EEF0E94B0
:104FE0000A2728F040E851E071F45EEF0CC00C9401
:104FF00000270C944427E92FE0780E94222740F3F1
:10500000092E052AB1F3261737074807590738F044
:105010000E2E07F8E02569F0E025E0640AC0EF6392
:1050200007F8009407FADB01B9019D01DC01CA0110
:10503000AD01EF930E9471280E9411270E942B2836
:105040005F91552339F02BED3FE049E450FD49ECE9
:105050000C947C270895DF93DD27B92FBF7740E8B4
:105060005FE31616170648075B0718F4D92F0E944E
:105070002E299F938F937F936F930E943629E8E6A2
:10508000F0E00E9402290E9411272F913F914F9139
:105090005F910E94A026DD2351F09058A2EA2AEDEC
:1050A0003FE049EC5FE3D0785D270E949327DF91D2
:1050B0000C9411270E946E280C9411270E940A2735
:1050C00058F00E94032740F029F45F3F29F00C9428
:1050D000FA2651110C9445270C9400270E94222790
:1050E00068F39923B1F3552391F3951B550BBB2717
:1050F000AA2762177307840738F09F5F5F4F220F5C
:10510000331F441FAA1FA9F335D00E2E3AF0E0E852
:1051100032D091505040E695001CCAF72BD0FE2F9C
:1051200029D0660F771F881FBB1F26173707480730
:10513000AB07B0E809F0BB0B802DBF01FF279358E8
:105140005F4F3AF09E3F510578F00C94FA260C948C
:1051500045275F3FE4F3983ED4F3869577956795AE
:10516000B795F7959F5FC9F7880F911D969587951D
:1051700097F90895E1E0660F771F881FBB1F62173C
:1051800073078407BA0720F0621B730B840BBA0BFA
:10519000EE1F88F7E09508950E94D3286894B11116
:1051A0000C94452708950E942A2788F09F5798F06D
:1051B000B92F9927B751B0F0E1F0660F771F881F1C
:1051C000991F1AF0BA95C9F714C0B13091F00E9436
:1051D0004427B1E008950C944427672F782F88273F
:1051E000B85F39F0B93FCCF3869577956795B3955D
:1051F000D9F73EF490958095709561957F4F8F4FCC
:105200009F4F0895DF93CF931F930F93FF92EF92D9
:10521000DF927B018C01689406C0DA2EEF010E94B8
:10522000A026FE01E894A5912591359145915591CF
:10523000A6F3EF010E949327FE019701A801DA94DB
:1052400069F7DF90EF90FF900F911F91CF91DF9161
:1052500008950E94692608F48FEF08959B01AC0120
:1052600060E070E080E89FE30C945A289B01AC0159
:105270000C948D260E946926880B990B0895991B22
:1052800079E004C0991F961708F0961B881F7A953D
:10529000C9F780950895AA1BBB1B51E107C0AA1F3F
:1052A000BB1FA617B70710F0A61BB70B881F991FC7
:1052B0005A95A9F780959095BC01CD01089597FB6B
:1052C000072E16F4009407D077FD09D00E944B29D1
:1052D00007FC05D03EF4909581959F4F08957095F9
:1052E00061957F4F0895A1E21A2EAA1BBB1BFD01F9
:1052F0000DC0AA1FBB1FEE1FFF1FA217B307E407B5
:10530000F50720F0A21BB30BE40BF50B661F771F0C
:10531000881F991F1A9469F76095709580959095EC
:105320009B01AC01BD01CF010895EE0FFF1F059059
:10533000F491E02D0994B7FF0C9461270E94612736
:10534000821B930B0895002E083090F0982F872F22
:10535000762F652F542F432F322F22270850F4CF5A
:10536000220F331F441F551F661F771F881F991F69
:105370000A95B2F7002D089597FD1094002E08307D
:1053800098F00850232F342F452F562F672F782F52
:10539000892F912DF4CF15949795879577956795DB
:1053A00057954795379527950A95AAF71124002D0B
:1053B00008950024A7FD00942A17300540055005E4
:1053C000600570058005900508950F931F93CF9396
:1053D000DF938230910510F482E090E0E0911706AF
:1053E000F091180630E020E0B0E0A0E0309799F4AA
:1053F0002115310509F44AC0281B390B2430310529
:10540000D8F58A819B816115710589F1FB01938330
:105410008283FE0111C040815181028113814817AE
:105420005907E0F04817590799F4109761F0129660
:105430000C93129713961C933296CF01DF91CF9164
:105440001F910F9108950093170610931806F4CF3B
:105450002115310551F04217530738F0A901DB013E
:105460009A01BD01DF01F801C1CFEF01F9CF90939F
:10547000180680931706CDCFFE01E20FF31F81932C
:1054800091932250310939832883D7CF2091150673
:1054900030911606232B41F42091260130912701EB
:1054A0003093160620931506209124013091250192
:1054B0002115310541F42DB73EB740912801509197
:1054C0002901241B350BE0911506F0911606E21711
:1054D000F307A0F42E1B3F0B2817390778F0AC0117
:1054E0004E5F5F4F2417350748F04E0F5F1F5093F4
:1054F000160640931506819391939FCFF0E0E0E06C
:105500009CCFCF93DF930097E9F0FC013297138291
:105510001282A0911706B0911806ED0130E020E04C
:105520001097A1F420813181820F931F20911506DD
:10553000309116062817390709F061C0F093160656
:10554000E0931506DF91CF910895EA01CE17DF07AA
:10555000E8F54A815B819E0141155105B1F7E901EA
:10556000FB83EA8349915991C40FD51FEC17FD07BE
:1055700061F4808191810296840F951FE9019983DE
:105580008883828193819B838A83F0E0E0E0129696
:105590008D919C9113970097B9F52D913C9111979E
:1055A000CD010296820F931F2091150630911606A9
:1055B0002817390739F6309751F5109218061092CE
:1055C0001706B0931606A0931506BCCFD383C283EB
:1055D00040815181840F951FC817D90761F44E5F30
:1055E0005F4F88819981480F591F518340838A8179
:1055F0009B81938382832115310509F0B0CFF0930D
:105600001806E09317069ECFFD01DC01C0CF138280
:105610001282D7CF81E090E0F8940C940F2B13E026
:10562000CEE4D3E004C0FE010E9495292196CF3438
:08563000D107C9F7F894FFCF80
:1056380053756E004D6F6E005475650057656400B4
:1056480054687500467269005361740096059605A2
:10565800146400010000190680001F1C1F1E1F1E75
:105668001F1F1E1F1E1F0000000037069705C405D8
:105678008906F505D305E7050000000091116411BE
:10568800331293055D114A113B1100000000070B0E
:10569800970533123212CC169305AC0D840DA00D6C
:1056A800940DB30D9305CD08CC084B0D120DCD0C00
:1056B800B00C380CD90B00000000070B970533120B
:1056C800321276079305AC0D840DA00D940DB30D21
:1056D8009305CD08CC084B0D120DCD0C3407380CB2
:1056E800D90BD914F0140D0A0020280029200044F1
:1056F800434637373A204246202D20427566666574
:10570800722069732066756C6C202D204F4B004207
:1057180075696C6474696D653A200050495220734C
:10572800656E736F72206973206E6F742075736570
:105738006400436F756C646E27742066696E64201C
:10574800525443006368616E676520636F6C6F72C3
:1057580020746F2000636865636B44434653696730
:105768006E616C2E2E2E2000284E4F205349474E36
:10577800414C2900284D4953455241424C45290086
:1057880028424144290028474F4F44290061637447
:1057980069766520636F6C6F723A2000525443201B
:1057A8006C6F737420706F776572004C69676874EA
:1057B8003A20004272696768746E6573733A200014
:1057C8005254433A200054656D703A20006E616E61
:1057D80000696E66006F76660020430044434637D2
:1057E800373A20496E76616C696420706172697419
:1057F800790044434637373A2054696D65206F7500
:105808007473696465206F6620626F756E647300D7
:1058180044434637373A20636C6F736520746F20B2
:10582800696E7465726E616C20636C6F636B0044A3
:10583800434637373A2074696D65206C6167206389
:105848006F6E73697374656E740044434637373AF4
:105858002074696D65206C616720696E636F6E7373
:10586800697374656E7400476F74206E6577207471
:10587800696D652066726F6D204443463A00416445
:105888006A757374205254432074696D65004553DA
:1058980020495354200046C39C4E4620004E4143A5
:1058A8004820005A45484E20005649455254454C18
:1058B8002000564F52200048414C4220005A57C3FE
:1058C800964C46200045494E0055485220005A57EC
:1058D8004549200044524549200056494552200078
:1058E8005345434853200053494542454E20004103
:1058F80043485420004E45554E2000454C46200054
:105908004E696768746D6F64652061637469766554
:10591800202D3E204C4544204F4646003120003083
:0259280020005D
:00000001FF
